{
  "contractName": "ArtToken",
  "abi": [
    {
      "inputs": [
        {
          "internalType": "string",
          "name": "_name",
          "type": "string"
        },
        {
          "internalType": "string",
          "name": "_symbol",
          "type": "string"
        }
      ],
      "stateMutability": "nonpayable",
      "type": "constructor"
    },
    {
      "anonymous": false,
      "inputs": [
        {
          "indexed": true,
          "internalType": "address",
          "name": "owner",
          "type": "address"
        },
        {
          "indexed": true,
          "internalType": "address",
          "name": "approved",
          "type": "address"
        },
        {
          "indexed": true,
          "internalType": "uint256",
          "name": "tokenId",
          "type": "uint256"
        }
      ],
      "name": "Approval",
      "type": "event"
    },
    {
      "anonymous": false,
      "inputs": [
        {
          "indexed": true,
          "internalType": "address",
          "name": "owner",
          "type": "address"
        },
        {
          "indexed": true,
          "internalType": "address",
          "name": "operator",
          "type": "address"
        },
        {
          "indexed": false,
          "internalType": "bool",
          "name": "approved",
          "type": "bool"
        }
      ],
      "name": "ApprovalForAll",
      "type": "event"
    },
    {
      "anonymous": false,
      "inputs": [
        {
          "indexed": true,
          "internalType": "address",
          "name": "owner",
          "type": "address"
        },
        {
          "indexed": false,
          "internalType": "uint256",
          "name": "id",
          "type": "uint256"
        },
        {
          "indexed": false,
          "internalType": "uint256",
          "name": "dna",
          "type": "uint256"
        }
      ],
      "name": "NewArtWork",
      "type": "event"
    },
    {
      "anonymous": false,
      "inputs": [
        {
          "indexed": true,
          "internalType": "address",
          "name": "previousOwner",
          "type": "address"
        },
        {
          "indexed": true,
          "internalType": "address",
          "name": "newOwner",
          "type": "address"
        }
      ],
      "name": "OwnershipTransferred",
      "type": "event"
    },
    {
      "anonymous": false,
      "inputs": [
        {
          "indexed": true,
          "internalType": "address",
          "name": "from",
          "type": "address"
        },
        {
          "indexed": true,
          "internalType": "address",
          "name": "to",
          "type": "address"
        },
        {
          "indexed": true,
          "internalType": "uint256",
          "name": "tokenId",
          "type": "uint256"
        }
      ],
      "name": "Transfer",
      "type": "event"
    },
    {
      "inputs": [
        {
          "internalType": "address",
          "name": "to",
          "type": "address"
        },
        {
          "internalType": "uint256",
          "name": "tokenId",
          "type": "uint256"
        }
      ],
      "name": "approve",
      "outputs": [],
      "stateMutability": "nonpayable",
      "type": "function"
    },
    {
      "inputs": [
        {
          "internalType": "uint256",
          "name": "",
          "type": "uint256"
        }
      ],
      "name": "art_works",
      "outputs": [
        {
          "internalType": "string",
          "name": "name",
          "type": "string"
        },
        {
          "internalType": "uint256",
          "name": "id",
          "type": "uint256"
        },
        {
          "internalType": "uint256",
          "name": "dna",
          "type": "uint256"
        },
        {
          "internalType": "uint8",
          "name": "level",
          "type": "uint8"
        },
        {
          "internalType": "uint8",
          "name": "rarity",
          "type": "uint8"
        }
      ],
      "stateMutability": "view",
      "type": "function"
    },
    {
      "inputs": [
        {
          "internalType": "address",
          "name": "owner",
          "type": "address"
        }
      ],
      "name": "balanceOf",
      "outputs": [
        {
          "internalType": "uint256",
          "name": "",
          "type": "uint256"
        }
      ],
      "stateMutability": "view",
      "type": "function"
    },
    {
      "inputs": [
        {
          "internalType": "uint256",
          "name": "tokenId",
          "type": "uint256"
        }
      ],
      "name": "getApproved",
      "outputs": [
        {
          "internalType": "address",
          "name": "",
          "type": "address"
        }
      ],
      "stateMutability": "view",
      "type": "function"
    },
    {
      "inputs": [
        {
          "internalType": "address",
          "name": "owner",
          "type": "address"
        },
        {
          "internalType": "address",
          "name": "operator",
          "type": "address"
        }
      ],
      "name": "isApprovedForAll",
      "outputs": [
        {
          "internalType": "bool",
          "name": "",
          "type": "bool"
        }
      ],
      "stateMutability": "view",
      "type": "function"
    },
    {
      "inputs": [],
      "name": "name",
      "outputs": [
        {
          "internalType": "string",
          "name": "",
          "type": "string"
        }
      ],
      "stateMutability": "view",
      "type": "function"
    },
    {
      "inputs": [],
      "name": "owner",
      "outputs": [
        {
          "internalType": "address",
          "name": "",
          "type": "address"
        }
      ],
      "stateMutability": "view",
      "type": "function"
    },
    {
      "inputs": [
        {
          "internalType": "uint256",
          "name": "tokenId",
          "type": "uint256"
        }
      ],
      "name": "ownerOf",
      "outputs": [
        {
          "internalType": "address",
          "name": "",
          "type": "address"
        }
      ],
      "stateMutability": "view",
      "type": "function"
    },
    {
      "inputs": [],
      "name": "renounceOwnership",
      "outputs": [],
      "stateMutability": "nonpayable",
      "type": "function"
    },
    {
      "inputs": [
        {
          "internalType": "address",
          "name": "from",
          "type": "address"
        },
        {
          "internalType": "address",
          "name": "to",
          "type": "address"
        },
        {
          "internalType": "uint256",
          "name": "tokenId",
          "type": "uint256"
        }
      ],
      "name": "safeTransferFrom",
      "outputs": [],
      "stateMutability": "nonpayable",
      "type": "function"
    },
    {
      "inputs": [
        {
          "internalType": "address",
          "name": "from",
          "type": "address"
        },
        {
          "internalType": "address",
          "name": "to",
          "type": "address"
        },
        {
          "internalType": "uint256",
          "name": "tokenId",
          "type": "uint256"
        },
        {
          "internalType": "bytes",
          "name": "_data",
          "type": "bytes"
        }
      ],
      "name": "safeTransferFrom",
      "outputs": [],
      "stateMutability": "nonpayable",
      "type": "function"
    },
    {
      "inputs": [
        {
          "internalType": "address",
          "name": "operator",
          "type": "address"
        },
        {
          "internalType": "bool",
          "name": "approved",
          "type": "bool"
        }
      ],
      "name": "setApprovalForAll",
      "outputs": [],
      "stateMutability": "nonpayable",
      "type": "function"
    },
    {
      "inputs": [
        {
          "internalType": "bytes4",
          "name": "interfaceId",
          "type": "bytes4"
        }
      ],
      "name": "supportsInterface",
      "outputs": [
        {
          "internalType": "bool",
          "name": "",
          "type": "bool"
        }
      ],
      "stateMutability": "view",
      "type": "function"
    },
    {
      "inputs": [],
      "name": "symbol",
      "outputs": [
        {
          "internalType": "string",
          "name": "",
          "type": "string"
        }
      ],
      "stateMutability": "view",
      "type": "function"
    },
    {
      "inputs": [
        {
          "internalType": "uint256",
          "name": "tokenId",
          "type": "uint256"
        }
      ],
      "name": "tokenURI",
      "outputs": [
        {
          "internalType": "string",
          "name": "",
          "type": "string"
        }
      ],
      "stateMutability": "view",
      "type": "function"
    },
    {
      "inputs": [
        {
          "internalType": "address",
          "name": "from",
          "type": "address"
        },
        {
          "internalType": "address",
          "name": "to",
          "type": "address"
        },
        {
          "internalType": "uint256",
          "name": "tokenId",
          "type": "uint256"
        }
      ],
      "name": "transferFrom",
      "outputs": [],
      "stateMutability": "nonpayable",
      "type": "function"
    },
    {
      "inputs": [
        {
          "internalType": "address",
          "name": "newOwner",
          "type": "address"
        }
      ],
      "name": "transferOwnership",
      "outputs": [],
      "stateMutability": "nonpayable",
      "type": "function"
    },
    {
      "inputs": [
        {
          "internalType": "uint256",
          "name": "_fee",
          "type": "uint256"
        }
      ],
      "name": "updateFee",
      "outputs": [],
      "stateMutability": "nonpayable",
      "type": "function"
    },
    {
      "inputs": [],
      "name": "infoSmartContract",
      "outputs": [
        {
          "internalType": "address",
          "name": "",
          "type": "address"
        },
        {
          "internalType": "uint256",
          "name": "",
          "type": "uint256"
        }
      ],
      "stateMutability": "view",
      "type": "function"
    }
  ],
  "bytecode": "0x6080604052674563918244f400006008553480156200001d57600080fd5b5060405162001b6238038062001b62833981016040819052620000409162000255565b81518290829062000059906000906020850190620000fc565b5080516200006f906001906020840190620000fc565b5050506200009e6200008f620000a6640100000000026401000000009004565b640100000000620000aa810204565b505062000341565b3390565b60068054600160a060020a03838116600160a060020a0319831681179093556040519116919082907f8be0079c531659141344cd1fd0a4f28419497f9722a3daafe3b4186f6b6457e090600090a35050565b8280546200010a90620002bc565b90600052602060002090601f0160209004810192826200012e576000855562000179565b82601f106200014957805160ff191683800117855562000179565b8280016001018555821562000179579182015b82811115620001795782518255916020019190600101906200015c565b50620001879291506200018b565b5090565b5b808211156200018757600081556001016200018c565b600082601f830112620001b3578081fd5b81516001604060020a0380821115620001d057620001d062000312565b604051601f8301601f19908116603f01168101908282118183101715620001fb57620001fb62000312565b8160405283815260209250868385880101111562000217578485fd5b8491505b838210156200023a57858201830151818301840152908201906200021b565b838211156200024b57848385830101525b9695505050505050565b6000806040838503121562000268578182fd5b82516001604060020a03808211156200027f578384fd5b6200028d86838701620001a2565b93506020850151915080821115620002a3578283fd5b50620002b285828601620001a2565b9150509250929050565b600281046001821680620002d157607f821691505b602082108114156200030c577f4e487b7100000000000000000000000000000000000000000000000000000000600052602260045260246000fd5b50919050565b7f4e487b7100000000000000000000000000000000000000000000000000000000600052604160045260246000fd5b61181180620003516000396000f3fe608060405234801561001057600080fd5b506004361061013e576000357c010000000000000000000000000000000000000000000000000000000090048063715018a6116100ca578063a22cb4651161008e578063a22cb46514610299578063b88d4fde146102ac578063c87b56dd146102bf578063e985e9c5146102d2578063f2fde38b1461030e57600080fd5b8063715018a61461023e5780638da5cb5b146102465780639012c4a81461025757806395d89b411461026a5780639b6c354e1461027257600080fd5b8063095ea7b311610111578063095ea7b3146101cf57806323b872dd146101e457806342842e0e146101f75780636352211e1461020a57806370a082311461021d57600080fd5b806301ffc9a7146101435780630667fac31461016b57806306fdde031461018f578063081812fc146101a4575b600080fd5b61015661015136600461147b565b610321565b60405190151581526020015b60405180910390f35b61017e6101793660046114b3565b6103be565b604051610162959493929190611575565b610197610494565b6040516101629190611562565b6101b76101b23660046114b3565b610526565b604051600160a060020a039091168152602001610162565b6101e26101dd366004611452565b6105d4565b005b6101e26101f2366004611308565b61070c565b6101e2610205366004611308565b610740565b6101b76102183660046114b3565b61075b565b61023061022b3660046112bc565b6107e9565b604051908152602001610162565b6101e2610886565b600654600160a060020a03166101b7565b6101e26102653660046114b3565b6108bf565b6101976108f1565b61027a610900565b60408051600160a060020a039093168352602083019190915201610162565b6101e26102a7366004611418565b610923565b6101e26102ba366004611343565b610932565b6101976102cd3660046114b3565b61096d565b6101566102e03660046112d6565b600160a060020a03918216600090815260056020908152604080832093909416825291909152205460ff1690565b6101e261031c3660046112bc565b610a66565b6000600160e060020a031982167f80ac58cd0000000000000000000000000000000000000000000000000000000014806103845750600160e060020a031982167f5b5e139f00000000000000000000000000000000000000000000000000000000145b806103b857507f01ffc9a700000000000000000000000000000000000000000000000000000000600160e060020a03198316145b92915050565b600981815481106103ce57600080fd5b90600052602060002090600402016000915090508060000180546103f19061170d565b80601f016020809104026020016040519081016040528092919081815260200182805461041d9061170d565b801561046a5780601f1061043f5761010080835404028352916020019161046a565b820191906000526020600020905b81548152906001019060200180831161044d57829003601f168201915b50505050600183015460028401546003909401549293909290915060ff8082169161010090041685565b6060600080546104a39061170d565b80601f01602080910402602001604051908101604052809291908181526020018280546104cf9061170d565b801561051c5780601f106104f15761010080835404028352916020019161051c565b820191906000526020600020905b8154815290600101906020018083116104ff57829003601f168201915b5050505050905090565b600081815260026020526040812054600160a060020a03166105b85760405160e560020a62461bcd02815260206004820152602c60248201527f4552433732313a20617070726f76656420717565727920666f72206e6f6e657860448201527f697374656e7420746f6b656e000000000000000000000000000000000000000060648201526084015b60405180910390fd5b50600090815260046020526040902054600160a060020a031690565b60006105df8261075b565b905080600160a060020a031683600160a060020a0316141561066c5760405160e560020a62461bcd02815260206004820152602160248201527f4552433732313a20617070726f76616c20746f2063757272656e74206f776e6560448201527f720000000000000000000000000000000000000000000000000000000000000060648201526084016105af565b33600160a060020a0382161480610688575061068881336102e0565b6106fd5760405160e560020a62461bcd02815260206004820152603860248201527f4552433732313a20617070726f76652063616c6c6572206973206e6f74206f7760448201527f6e6572206e6f7220617070726f76656420666f7220616c6c000000000000000060648201526084016105af565b6107078383610b1e565b505050565b6107163382610b99565b6107355760405160e560020a62461bcd0281526004016105af90611641565b610707838383610ca4565b61070783838360405180602001604052806000815250610932565b600081815260026020526040812054600160a060020a0316806103b85760405160e560020a62461bcd02815260206004820152602960248201527f4552433732313a206f776e657220717565727920666f72206e6f6e657869737460448201527f656e7420746f6b656e000000000000000000000000000000000000000000000060648201526084016105af565b6000600160a060020a03821661086a5760405160e560020a62461bcd02815260206004820152602a60248201527f4552433732313a2062616c616e636520717565727920666f7220746865207a6560448201527f726f20616464726573730000000000000000000000000000000000000000000060648201526084016105af565b50600160a060020a031660009081526003602052604090205490565b600654600160a060020a031633146108b35760405160e560020a62461bcd0281526004016105af9061160c565b6108bd6000610e84565b565b600654600160a060020a031633146108ec5760405160e560020a62461bcd0281526004016105af9061160c565b600855565b6060600180546104a39061170d565b6000803081610918670de0b6b3a764000083316116b6565b919491935090915050565b61092e338383610ee3565b5050565b61093c3383610b99565b61095b5760405160e560020a62461bcd0281526004016105af90611641565b61096784848484610fb5565b50505050565b600081815260026020526040902054606090600160a060020a03166109fd5760405160e560020a62461bcd02815260206004820152602f60248201527f4552433732314d657461646174613a2055524920717565727920666f72206e6f60448201527f6e6578697374656e7420746f6b656e000000000000000000000000000000000060648201526084016105af565b6000610a1460408051602081019091526000815290565b90506000815111610a345760405180602001604052806000815250610a5f565b80610a3e84610feb565b604051602001610a4f9291906114f7565b6040516020818303038152906040525b9392505050565b600654600160a060020a03163314610a935760405160e560020a62461bcd0281526004016105af9061160c565b600160a060020a038116610b125760405160e560020a62461bcd02815260206004820152602660248201527f4f776e61626c653a206e6577206f776e657220697320746865207a65726f206160448201527f646472657373000000000000000000000000000000000000000000000000000060648201526084016105af565b610b1b81610e84565b50565b6000818152600460205260409020805473ffffffffffffffffffffffffffffffffffffffff1916600160a060020a0384169081179091558190610b608261075b565b600160a060020a03167f8c5be1e5ebec7d5bd14f71427d1e84f3dd0314c0f7b2291e5b200ac8c7c3b92560405160405180910390a45050565b600081815260026020526040812054600160a060020a0316610c265760405160e560020a62461bcd02815260206004820152602c60248201527f4552433732313a206f70657261746f7220717565727920666f72206e6f6e657860448201527f697374656e7420746f6b656e000000000000000000000000000000000000000060648201526084016105af565b6000610c318361075b565b905080600160a060020a031684600160a060020a03161480610c6c575083600160a060020a0316610c6184610526565b600160a060020a0316145b80610c9c5750600160a060020a0380821660009081526005602090815260408083209388168352929052205460ff165b949350505050565b82600160a060020a0316610cb78261075b565b600160a060020a031614610d365760405160e560020a62461bcd02815260206004820152602960248201527f4552433732313a207472616e73666572206f6620746f6b656e2074686174206960448201527f73206e6f74206f776e000000000000000000000000000000000000000000000060648201526084016105af565b600160a060020a038216610db45760405160e560020a62461bcd028152602060048201526024808201527f4552433732313a207472616e7366657220746f20746865207a65726f2061646460448201527f726573730000000000000000000000000000000000000000000000000000000060648201526084016105af565b610dbf600082610b1e565b600160a060020a0383166000908152600360205260408120805460019290610de89084906116ca565b9091555050600160a060020a0382166000908152600360205260408120805460019290610e1690849061169e565b9091555050600081815260026020526040808220805473ffffffffffffffffffffffffffffffffffffffff1916600160a060020a0386811691821790925591518493918716917fddf252ad1be2c89b69c2b068fc378daa952ba7f163c4a11628f55a4df523b3ef91a4505050565b60068054600160a060020a0383811673ffffffffffffffffffffffffffffffffffffffff19831681179093556040519116919082907f8be0079c531659141344cd1fd0a4f28419497f9722a3daafe3b4186f6b6457e090600090a35050565b81600160a060020a031683600160a060020a03161415610f485760405160e560020a62461bcd02815260206004820152601960248201527f4552433732313a20617070726f766520746f2063616c6c65720000000000000060448201526064016105af565b600160a060020a03838116600081815260056020908152604080832094871680845294825291829020805460ff191686151590811790915591519182527f17307eab39ab6107e8899845ad3d59bd9653f200f220920489ca2b5937696c31910160405180910390a3505050565b610fc0848484610ca4565b610fcc8484848461115e565b6109675760405160e560020a62461bcd0281526004016105af906115af565b60608161102b57505060408051808201909152600181527f3000000000000000000000000000000000000000000000000000000000000000602082015290565b8160005b8115611055578061103f8161174b565b915061104e9050600a836116b6565b915061102f565b60008167ffffffffffffffff8111156110815760e060020a634e487b7102600052604160045260246000fd5b6040519080825280601f01601f1916602001820160405280156110ab576020820181803683370190505b5090505b8415610c9c576110c06001836116ca565b91506110cd600a86611766565b6110d890603061169e565b7f01000000000000000000000000000000000000000000000000000000000000000281838151811061111d5760e060020a634e487b7102600052603260045260246000fd5b60200101907effffffffffffffffffffffffffffffffffffffffffffffffffffffffffffff1916908160001a905350611157600a866116b6565b94506110af565b6000600160a060020a0384163b15611295576040517f150b7a02000000000000000000000000000000000000000000000000000000008152600160a060020a0385169063150b7a02906111bb903390899088908890600401611526565b602060405180830381600087803b1580156111d557600080fd5b505af1925050508015611205575060408051601f3d908101601f1916820190925261120291810190611497565b60015b611262573d808015611233576040519150601f19603f3d011682016040523d82523d6000602084013e611238565b606091505b50805161125a5760405160e560020a62461bcd0281526004016105af906115af565b805181602001fd5b600160e060020a0319167f150b7a0200000000000000000000000000000000000000000000000000000000149050610c9c565b506001949350505050565b8035600160a060020a03811681146112b757600080fd5b919050565b6000602082840312156112cd578081fd5b610a5f826112a0565b600080604083850312156112e8578081fd5b6112f1836112a0565b91506112ff602084016112a0565b90509250929050565b60008060006060848603121561131c578081fd5b611325846112a0565b9250611333602085016112a0565b9150604084013590509250925092565b60008060008060808587031215611358578081fd5b611361856112a0565b935061136f602086016112a0565b925060408501359150606085013567ffffffffffffffff80821115611392578283fd5b818701915087601f8301126113a5578283fd5b8135818111156113b7576113b76117ac565b604051601f8201601f19908116603f011681019083821181831017156113df576113df6117ac565b816040528281528a60208487010111156113f7578586fd5b82602086016020830137918201602001949094529598949750929550505050565b6000806040838503121561142a578182fd5b611433836112a0565b915060208301358015158114611447578182fd5b809150509250929050565b60008060408385031215611464578182fd5b61146d836112a0565b946020939093013593505050565b60006020828403121561148c578081fd5b8135610a5f816117c5565b6000602082840312156114a8578081fd5b8151610a5f816117c5565b6000602082840312156114c4578081fd5b5035919050565b600081518084526114e38160208601602086016116e1565b601f01601f19169290920160200192915050565b600083516115098184602088016116e1565b83519083019061151d8183602088016116e1565b01949350505050565b6000600160a060020a0380871683528086166020840152508360408301526080606083015261155860808301846114cb565b9695505050505050565b602081526000610a5f60208301846114cb565b60a08152600061158860a08301886114cb565b602083019690965250604081019390935260ff918216606084015216608090910152919050565b60208082526032908201527f4552433732313a207472616e7366657220746f206e6f6e20455243373231526560408201527f63656976657220696d706c656d656e7465720000000000000000000000000000606082015260800190565b6020808252818101527f4f776e61626c653a2063616c6c6572206973206e6f7420746865206f776e6572604082015260600190565b60208082526031908201527f4552433732313a207472616e736665722063616c6c6572206973206e6f74206f60408201527f776e6572206e6f7220617070726f766564000000000000000000000000000000606082015260800190565b600082198211156116b1576116b161177a565b500190565b6000826116c5576116c5611793565b500490565b6000828210156116dc576116dc61177a565b500390565b60005b838110156116fc5781810151838201526020016116e4565b838111156109675750506000910152565b60028104600182168061172157607f821691505b602082108114156117455760e060020a634e487b7102600052602260045260246000fd5b50919050565b600060001982141561175f5761175f61177a565b5060010190565b60008261177557611775611793565b500690565b60e060020a634e487b7102600052601160045260246000fd5b60e060020a634e487b7102600052601260045260246000fd5b60e060020a634e487b7102600052604160045260246000fd5b600160e060020a031981168114610b1b57600080fdfea2646970667358221220a71c4d6f74d96daba19022c211375f23fff2c678e416eb2e1f05b742649f6aaa64736f6c63430008040033",
  "immutableReferences": {},
  "source": "// SPDX-License-Identifier: MIT\r\n\r\npragma solidity ^0.8.4;\r\n\r\nimport \"../node_modules/@openzeppelin/contracts/token/ERC721/ERC721.sol\";\r\nimport \"../node_modules/@openzeppelin/contracts/access/Ownable.sol\";\r\n\r\ncontract ArtToken is ERC721, Ownable {\r\n\r\n    constructor (string memory _name, string memory _symbol)\r\n        ERC721 (_name, _symbol){}\r\n\r\n    uint256 COUNTER;\r\n\r\n    uint256 fee = 5 ether;\r\n\r\n    struct Art {\r\n        string name;\r\n        uint256 id;\r\n        uint256 dna;\r\n        uint8 level;\r\n        uint8 rarity;\r\n    }\r\n\r\n    Art[] public art_works;\r\n\r\n    event NewArtWork (address indexed owner, uint256 id, uint256 dna);\r\n\r\n    function _createRandomNum(uint256 _mod) internal view returns (uint256) {\r\n        bytes32 has_randomNum = keccak256(abi.encodePacked(block.timestamp, msg.sender));\r\n        uint256 randomNum = uint256(has_randomNum);\r\n        return randomNum % _mod;\r\n    }\r\n    \r\n    function _createArtWork(string memory _name) internal {\r\n        uint8 randRarity = uint8(_createRandomNum(1000));\r\n        uint256 randDna = _createRandomNum(10**16);\r\n        Art memory newArtWork = Art(_name, COUNTER, randDna, 1, randRarity);\r\n        art_works.push(newArtWork);\r\n        _safeMint(msg.sender, COUNTER);\r\n        emit NewArtWork(msg.sender, COUNTER, randDna);\r\n        COUNTER++;\r\n    }\r\n\r\n    function updateFee(uint256 _fee) external onlyOwner() {\r\n        fee = _fee;        \r\n    }\r\n\r\n    function infoSmartContract () public view returns (address, uint256){\r\n        address SC_address = address(this);\r\n        uint256 SC_money = address(this).balance / 10**18;\r\n        return (SC_address, SC_money);\r\n    }\r\n    \r\n\r\n}",
  "sourcePath": "C:\\Users\\Agus\\repos\\custom-erc721\\contracts\\art.sol",
  "compiler": {
    "name": "solc",
    "version": "0.8.4+commit.c7e474f2.Emscripten.clang"
  },
  "schemaVersion": "3.4.16",
  "updatedAt": "2024-02-15T14:50:34.595Z",
  "devdoc": {
    "kind": "dev",
    "methods": {
      "approve(address,uint256)": {
        "details": "See {IERC721-approve}."
      },
      "balanceOf(address)": {
        "details": "See {IERC721-balanceOf}."
      },
      "getApproved(uint256)": {
        "details": "See {IERC721-getApproved}."
      },
      "isApprovedForAll(address,address)": {
        "details": "See {IERC721-isApprovedForAll}."
      },
      "name()": {
        "details": "See {IERC721Metadata-name}."
      },
      "owner()": {
        "details": "Returns the address of the current owner."
      },
      "ownerOf(uint256)": {
        "details": "See {IERC721-ownerOf}."
      },
      "renounceOwnership()": {
        "details": "Leaves the contract without owner. It will not be possible to call `onlyOwner` functions anymore. Can only be called by the current owner. NOTE: Renouncing ownership will leave the contract without an owner, thereby removing any functionality that is only available to the owner."
      },
      "safeTransferFrom(address,address,uint256)": {
        "details": "See {IERC721-safeTransferFrom}."
      },
      "safeTransferFrom(address,address,uint256,bytes)": {
        "details": "See {IERC721-safeTransferFrom}."
      },
      "setApprovalForAll(address,bool)": {
        "details": "See {IERC721-setApprovalForAll}."
      },
      "supportsInterface(bytes4)": {
        "details": "See {IERC165-supportsInterface}."
      },
      "symbol()": {
        "details": "See {IERC721Metadata-symbol}."
      },
      "tokenURI(uint256)": {
        "details": "See {IERC721Metadata-tokenURI}."
      },
      "transferFrom(address,address,uint256)": {
        "details": "See {IERC721-transferFrom}."
      },
      "transferOwnership(address)": {
        "details": "Transfers ownership of the contract to a new account (`newOwner`). Can only be called by the current owner."
      }
    },
    "version": 1
  },
  "userdoc": {
    "kind": "user",
    "methods": {},
    "version": 1
  }
}