{
  "contractName": "ArtToken",
  "abi": [
    {
      "inputs": [
        {
          "internalType": "string",
          "name": "_name",
          "type": "string"
        },
        {
          "internalType": "string",
          "name": "_symbol",
          "type": "string"
        }
      ],
      "stateMutability": "nonpayable",
      "type": "constructor"
    },
    {
      "anonymous": false,
      "inputs": [
        {
          "indexed": true,
          "internalType": "address",
          "name": "owner",
          "type": "address"
        },
        {
          "indexed": true,
          "internalType": "address",
          "name": "approved",
          "type": "address"
        },
        {
          "indexed": true,
          "internalType": "uint256",
          "name": "tokenId",
          "type": "uint256"
        }
      ],
      "name": "Approval",
      "type": "event"
    },
    {
      "anonymous": false,
      "inputs": [
        {
          "indexed": true,
          "internalType": "address",
          "name": "owner",
          "type": "address"
        },
        {
          "indexed": true,
          "internalType": "address",
          "name": "operator",
          "type": "address"
        },
        {
          "indexed": false,
          "internalType": "bool",
          "name": "approved",
          "type": "bool"
        }
      ],
      "name": "ApprovalForAll",
      "type": "event"
    },
    {
      "anonymous": false,
      "inputs": [
        {
          "indexed": true,
          "internalType": "address",
          "name": "owner",
          "type": "address"
        },
        {
          "indexed": false,
          "internalType": "uint256",
          "name": "id",
          "type": "uint256"
        },
        {
          "indexed": false,
          "internalType": "uint256",
          "name": "dna",
          "type": "uint256"
        }
      ],
      "name": "NewArtWork",
      "type": "event"
    },
    {
      "anonymous": false,
      "inputs": [
        {
          "indexed": true,
          "internalType": "address",
          "name": "previousOwner",
          "type": "address"
        },
        {
          "indexed": true,
          "internalType": "address",
          "name": "newOwner",
          "type": "address"
        }
      ],
      "name": "OwnershipTransferred",
      "type": "event"
    },
    {
      "anonymous": false,
      "inputs": [
        {
          "indexed": true,
          "internalType": "address",
          "name": "from",
          "type": "address"
        },
        {
          "indexed": true,
          "internalType": "address",
          "name": "to",
          "type": "address"
        },
        {
          "indexed": true,
          "internalType": "uint256",
          "name": "tokenId",
          "type": "uint256"
        }
      ],
      "name": "Transfer",
      "type": "event"
    },
    {
      "inputs": [
        {
          "internalType": "address",
          "name": "to",
          "type": "address"
        },
        {
          "internalType": "uint256",
          "name": "tokenId",
          "type": "uint256"
        }
      ],
      "name": "approve",
      "outputs": [],
      "stateMutability": "nonpayable",
      "type": "function"
    },
    {
      "inputs": [
        {
          "internalType": "uint256",
          "name": "",
          "type": "uint256"
        }
      ],
      "name": "art_works",
      "outputs": [
        {
          "internalType": "string",
          "name": "name",
          "type": "string"
        },
        {
          "internalType": "uint256",
          "name": "id",
          "type": "uint256"
        },
        {
          "internalType": "uint256",
          "name": "dna",
          "type": "uint256"
        },
        {
          "internalType": "uint8",
          "name": "level",
          "type": "uint8"
        },
        {
          "internalType": "uint8",
          "name": "rarity",
          "type": "uint8"
        }
      ],
      "stateMutability": "view",
      "type": "function"
    },
    {
      "inputs": [
        {
          "internalType": "address",
          "name": "owner",
          "type": "address"
        }
      ],
      "name": "balanceOf",
      "outputs": [
        {
          "internalType": "uint256",
          "name": "",
          "type": "uint256"
        }
      ],
      "stateMutability": "view",
      "type": "function"
    },
    {
      "inputs": [
        {
          "internalType": "uint256",
          "name": "tokenId",
          "type": "uint256"
        }
      ],
      "name": "getApproved",
      "outputs": [
        {
          "internalType": "address",
          "name": "",
          "type": "address"
        }
      ],
      "stateMutability": "view",
      "type": "function"
    },
    {
      "inputs": [
        {
          "internalType": "address",
          "name": "owner",
          "type": "address"
        },
        {
          "internalType": "address",
          "name": "operator",
          "type": "address"
        }
      ],
      "name": "isApprovedForAll",
      "outputs": [
        {
          "internalType": "bool",
          "name": "",
          "type": "bool"
        }
      ],
      "stateMutability": "view",
      "type": "function"
    },
    {
      "inputs": [],
      "name": "name",
      "outputs": [
        {
          "internalType": "string",
          "name": "",
          "type": "string"
        }
      ],
      "stateMutability": "view",
      "type": "function"
    },
    {
      "inputs": [],
      "name": "owner",
      "outputs": [
        {
          "internalType": "address",
          "name": "",
          "type": "address"
        }
      ],
      "stateMutability": "view",
      "type": "function"
    },
    {
      "inputs": [
        {
          "internalType": "uint256",
          "name": "tokenId",
          "type": "uint256"
        }
      ],
      "name": "ownerOf",
      "outputs": [
        {
          "internalType": "address",
          "name": "",
          "type": "address"
        }
      ],
      "stateMutability": "view",
      "type": "function"
    },
    {
      "inputs": [],
      "name": "renounceOwnership",
      "outputs": [],
      "stateMutability": "nonpayable",
      "type": "function"
    },
    {
      "inputs": [
        {
          "internalType": "address",
          "name": "from",
          "type": "address"
        },
        {
          "internalType": "address",
          "name": "to",
          "type": "address"
        },
        {
          "internalType": "uint256",
          "name": "tokenId",
          "type": "uint256"
        }
      ],
      "name": "safeTransferFrom",
      "outputs": [],
      "stateMutability": "nonpayable",
      "type": "function"
    },
    {
      "inputs": [
        {
          "internalType": "address",
          "name": "from",
          "type": "address"
        },
        {
          "internalType": "address",
          "name": "to",
          "type": "address"
        },
        {
          "internalType": "uint256",
          "name": "tokenId",
          "type": "uint256"
        },
        {
          "internalType": "bytes",
          "name": "_data",
          "type": "bytes"
        }
      ],
      "name": "safeTransferFrom",
      "outputs": [],
      "stateMutability": "nonpayable",
      "type": "function"
    },
    {
      "inputs": [
        {
          "internalType": "address",
          "name": "operator",
          "type": "address"
        },
        {
          "internalType": "bool",
          "name": "approved",
          "type": "bool"
        }
      ],
      "name": "setApprovalForAll",
      "outputs": [],
      "stateMutability": "nonpayable",
      "type": "function"
    },
    {
      "inputs": [
        {
          "internalType": "bytes4",
          "name": "interfaceId",
          "type": "bytes4"
        }
      ],
      "name": "supportsInterface",
      "outputs": [
        {
          "internalType": "bool",
          "name": "",
          "type": "bool"
        }
      ],
      "stateMutability": "view",
      "type": "function"
    },
    {
      "inputs": [],
      "name": "symbol",
      "outputs": [
        {
          "internalType": "string",
          "name": "",
          "type": "string"
        }
      ],
      "stateMutability": "view",
      "type": "function"
    },
    {
      "inputs": [
        {
          "internalType": "uint256",
          "name": "tokenId",
          "type": "uint256"
        }
      ],
      "name": "tokenURI",
      "outputs": [
        {
          "internalType": "string",
          "name": "",
          "type": "string"
        }
      ],
      "stateMutability": "view",
      "type": "function"
    },
    {
      "inputs": [
        {
          "internalType": "address",
          "name": "from",
          "type": "address"
        },
        {
          "internalType": "address",
          "name": "to",
          "type": "address"
        },
        {
          "internalType": "uint256",
          "name": "tokenId",
          "type": "uint256"
        }
      ],
      "name": "transferFrom",
      "outputs": [],
      "stateMutability": "nonpayable",
      "type": "function"
    },
    {
      "inputs": [
        {
          "internalType": "address",
          "name": "newOwner",
          "type": "address"
        }
      ],
      "name": "transferOwnership",
      "outputs": [],
      "stateMutability": "nonpayable",
      "type": "function"
    },
    {
      "inputs": [
        {
          "internalType": "uint256",
          "name": "_fee",
          "type": "uint256"
        }
      ],
      "name": "updateFee",
      "outputs": [],
      "stateMutability": "nonpayable",
      "type": "function"
    },
    {
      "inputs": [],
      "name": "infoSmartContract",
      "outputs": [
        {
          "internalType": "address",
          "name": "",
          "type": "address"
        },
        {
          "internalType": "uint256",
          "name": "",
          "type": "uint256"
        }
      ],
      "stateMutability": "view",
      "type": "function"
    },
    {
      "inputs": [],
      "name": "getArtWorks",
      "outputs": [
        {
          "components": [
            {
              "internalType": "string",
              "name": "name",
              "type": "string"
            },
            {
              "internalType": "uint256",
              "name": "id",
              "type": "uint256"
            },
            {
              "internalType": "uint256",
              "name": "dna",
              "type": "uint256"
            },
            {
              "internalType": "uint8",
              "name": "level",
              "type": "uint8"
            },
            {
              "internalType": "uint8",
              "name": "rarity",
              "type": "uint8"
            }
          ],
          "internalType": "struct ArtToken.Art[]",
          "name": "",
          "type": "tuple[]"
        }
      ],
      "stateMutability": "view",
      "type": "function"
    },
    {
      "inputs": [
        {
          "internalType": "address",
          "name": "_owner",
          "type": "address"
        }
      ],
      "name": "getOwnerArtWork",
      "outputs": [
        {
          "components": [
            {
              "internalType": "string",
              "name": "name",
              "type": "string"
            },
            {
              "internalType": "uint256",
              "name": "id",
              "type": "uint256"
            },
            {
              "internalType": "uint256",
              "name": "dna",
              "type": "uint256"
            },
            {
              "internalType": "uint8",
              "name": "level",
              "type": "uint8"
            },
            {
              "internalType": "uint8",
              "name": "rarity",
              "type": "uint8"
            }
          ],
          "internalType": "struct ArtToken.Art[]",
          "name": "",
          "type": "tuple[]"
        }
      ],
      "stateMutability": "view",
      "type": "function"
    },
    {
      "inputs": [
        {
          "internalType": "string",
          "name": "_name",
          "type": "string"
        }
      ],
      "name": "createRandomArtWork",
      "outputs": [],
      "stateMutability": "payable",
      "type": "function"
    },
    {
      "inputs": [],
      "name": "withdraw",
      "outputs": [],
      "stateMutability": "payable",
      "type": "function"
    }
  ],
  "bytecode": "0x6080604052674563918244f400006008553480156200001d57600080fd5b50604051620026a1380380620026a1833981016040819052620000409162000255565b81518290829062000059906000906020850190620000fc565b5080516200006f906001906020840190620000fc565b5050506200009e6200008f620000a6640100000000026401000000009004565b640100000000620000aa810204565b505062000341565b3390565b60068054600160a060020a03838116600160a060020a0319831681179093556040519116919082907f8be0079c531659141344cd1fd0a4f28419497f9722a3daafe3b4186f6b6457e090600090a35050565b8280546200010a90620002bc565b90600052602060002090601f0160209004810192826200012e576000855562000179565b82601f106200014957805160ff191683800117855562000179565b8280016001018555821562000179579182015b82811115620001795782518255916020019190600101906200015c565b50620001879291506200018b565b5090565b5b808211156200018757600081556001016200018c565b600082601f830112620001b3578081fd5b81516001604060020a0380821115620001d057620001d062000312565b604051601f8301601f19908116603f01168101908282118183101715620001fb57620001fb62000312565b8160405283815260209250868385880101111562000217578485fd5b8491505b838210156200023a57858201830151818301840152908201906200021b565b838211156200024b57848385830101525b9695505050505050565b6000806040838503121562000268578182fd5b82516001604060020a03808211156200027f578384fd5b6200028d86838701620001a2565b93506020850151915080821115620002a3578283fd5b50620002b285828601620001a2565b9150509250929050565b600281046001821680620002d157607f821691505b602082108114156200030c577f4e487b7100000000000000000000000000000000000000000000000000000000600052602260045260246000fd5b50919050565b7f4e487b7100000000000000000000000000000000000000000000000000000000600052604160045260246000fd5b61235080620003516000396000f3fe60806040526004361061015d576000357c0100000000000000000000000000000000000000000000000000000000900480636352211e116100d35780639b6c354e1161008c5780639b6c354e14610397578063a22cb465146103cb578063b88d4fde146103eb578063c87b56dd1461040b578063e985e9c51461042b578063f2fde38b1461047457600080fd5b80636352211e146102e157806370a0823114610301578063715018a61461032f5780638da5cb5b146103445780639012c4a81461036257806395d89b411461038257600080fd5b8063125c4b2b11610125578063125c4b2b1461024457806323b872dd146102715780632f2670c314610291578063382d0412146102a45780633ccfd60b146102b957806342842e0e146102c157600080fd5b806301ffc9a7146101625780630667fac31461019757806306fdde03146101c8578063081812fc146101ea578063095ea7b314610222575b600080fd5b34801561016e57600080fd5b5061018261017d366004611ed9565b610494565b60405190151581526020015b60405180910390f35b3480156101a357600080fd5b506101b76101b2366004611f57565b610531565b60405161018e9594939291906120b4565b3480156101d457600080fd5b506101dd610607565b60405161018e91906120a1565b3480156101f657600080fd5b5061020a610205366004611f57565b610699565b604051600160a060020a03909116815260200161018e565b34801561022e57600080fd5b5061024261023d366004611eb0565b610747565b005b34801561025057600080fd5b5061026461025f366004611d76565b61087f565b60405161018e9190612006565b34801561027d57600080fd5b5061024261028c366004611dc2565b610bca565b61024261029f366004611f11565b610bfe565b3480156102b057600080fd5b50610264610c19565b610242610d3f565b3480156102cd57600080fd5b506102426102dc366004611dc2565b610dbd565b3480156102ed57600080fd5b5061020a6102fc366004611f57565b610dd8565b34801561030d57600080fd5b5061032161031c366004611d76565b610e66565b60405190815260200161018e565b34801561033b57600080fd5b50610242610f03565b34801561035057600080fd5b50600654600160a060020a031661020a565b34801561036e57600080fd5b5061024261037d366004611f57565b610f3c565b34801561038e57600080fd5b506101dd610f6e565b3480156103a357600080fd5b506103ac610f7d565b60408051600160a060020a03909316835260208301919091520161018e565b3480156103d757600080fd5b506102426103e6366004611e76565b610fa0565b3480156103f757600080fd5b50610242610406366004611dfd565b610fab565b34801561041757600080fd5b506101dd610426366004611f57565b610fe6565b34801561043757600080fd5b50610182610446366004611d90565b600160a060020a03918216600090815260056020908152604080832093909416825291909152205460ff1690565b34801561048057600080fd5b5061024261048f366004611d76565b6110df565b6000600160e060020a031982167f80ac58cd0000000000000000000000000000000000000000000000000000000014806104f75750600160e060020a031982167f5b5e139f00000000000000000000000000000000000000000000000000000000145b8061052b57507f01ffc9a700000000000000000000000000000000000000000000000000000000600160e060020a03198316145b92915050565b6009818154811061054157600080fd5b90600052602060002090600402016000915090508060000180546105649061224c565b80601f01602080910402602001604051908101604052809291908181526020018280546105909061224c565b80156105dd5780601f106105b2576101008083540402835291602001916105dd565b820191906000526020600020905b8154815290600101906020018083116105c057829003601f168201915b50505050600183015460028401546003909401549293909290915060ff8082169161010090041685565b6060600080546106169061224c565b80601f01602080910402602001604051908101604052809291908181526020018280546106429061224c565b801561068f5780601f106106645761010080835404028352916020019161068f565b820191906000526020600020905b81548152906001019060200180831161067257829003601f168201915b5050505050905090565b600081815260026020526040812054600160a060020a031661072b5760405160e560020a62461bcd02815260206004820152602c60248201527f4552433732313a20617070726f76656420717565727920666f72206e6f6e657860448201527f697374656e7420746f6b656e000000000000000000000000000000000000000060648201526084015b60405180910390fd5b50600090815260046020526040902054600160a060020a031690565b600061075282610dd8565b905080600160a060020a031683600160a060020a031614156107df5760405160e560020a62461bcd02815260206004820152602160248201527f4552433732313a20617070726f76616c20746f2063757272656e74206f776e6560448201527f72000000000000000000000000000000000000000000000000000000000000006064820152608401610722565b33600160a060020a03821614806107fb57506107fb8133610446565b6108705760405160e560020a62461bcd02815260206004820152603860248201527f4552433732313a20617070726f76652063616c6c6572206973206e6f74206f7760448201527f6e6572206e6f7220617070726f76656420666f7220616c6c00000000000000006064820152608401610722565b61087a8383611194565b505050565b6060600061088c83610e66565b67ffffffffffffffff8111156108b55760e060020a634e487b7102600052604160045260246000fd5b60405190808252806020026020018201604052801561091e57816020015b61090b6040518060a00160405280606081526020016000815260200160008152602001600060ff168152602001600060ff1681525090565b8152602001906001900390816108d35790505b5090506000805b600954811015610aa15784600160a060020a031661094282610dd8565b600160a060020a03161415610a8f57600981815481106109755760e060020a634e487b7102600052603260045260246000fd5b90600052602060002090600402016040518060a001604052908160008201805461099e9061224c565b80601f01602080910402602001604051908101604052809291908181526020018280546109ca9061224c565b8015610a175780601f106109ec57610100808354040283529160200191610a17565b820191906000526020600020905b8154815290600101906020018083116109fa57829003601f168201915b5050509183525050600182015460208201526002820154604082015260039091015460ff8082166060840152610100909104166080909101528351849084908110610a755760e060020a634e487b7102600052603260045260246000fd5b60200260200101819052508180610a8b9061228a565b9250505b80610a998161228a565b915050610925565b506009805480602002602001604051908101604052809291908181526020016000905b82821015610bbd57838290600052602060002090600402016040518060a0016040529081600082018054610af79061224c565b80601f0160208091040260200160405190810160405280929190818152602001828054610b239061224c565b8015610b705780601f10610b4557610100808354040283529160200191610b70565b820191906000526020600020905b815481529060010190602001808311610b5357829003601f168201915b50505091835250506001828101546020808401919091526002840154604084015260039093015460ff80821660608501526101009091041660809092019190915291835292019101610ac4565b5050505092505050919050565b610bd4338261120f565b610bf35760405160e560020a62461bcd02815260040161072290612180565b61087a83838361131a565b600854341015610c0d57600080fd5b610c16816114fa565b50565b60606009805480602002602001604051908101604052809291908181526020016000905b82821015610d3657838290600052602060002090600402016040518060a0016040529081600082018054610c709061224c565b80601f0160208091040260200160405190810160405280929190818152602001828054610c9c9061224c565b8015610ce95780601f10610cbe57610100808354040283529160200191610ce9565b820191906000526020600020905b815481529060010190602001808311610ccc57829003601f168201915b50505091835250506001828101546020808401919091526002840154604084015260039093015460ff80821660608501526101009091041660809092019190915291835292019101610c3d565b50505050905090565b600654600160a060020a03163314610d6c5760405160e560020a62461bcd0281526004016107229061214b565b6000610d80600654600160a060020a031690565b604051909150600160a060020a03821690303180156108fc02916000818181858888f19350505050158015610db9573d6000803e3d6000fd5b5050565b61087a83838360405180602001604052806000815250610fab565b600081815260026020526040812054600160a060020a03168061052b5760405160e560020a62461bcd02815260206004820152602960248201527f4552433732313a206f776e657220717565727920666f72206e6f6e657869737460448201527f656e7420746f6b656e00000000000000000000000000000000000000000000006064820152608401610722565b6000600160a060020a038216610ee75760405160e560020a62461bcd02815260206004820152602a60248201527f4552433732313a2062616c616e636520717565727920666f7220746865207a6560448201527f726f2061646472657373000000000000000000000000000000000000000000006064820152608401610722565b50600160a060020a031660009081526003602052604090205490565b600654600160a060020a03163314610f305760405160e560020a62461bcd0281526004016107229061214b565b610f3a6000611643565b565b600654600160a060020a03163314610f695760405160e560020a62461bcd0281526004016107229061214b565b600855565b6060600180546106169061224c565b6000803081610f95670de0b6b3a764000083316121f5565b919491935090915050565b610db93383836116a2565b610fb5338361120f565b610fd45760405160e560020a62461bcd02815260040161072290612180565b610fe084848484611774565b50505050565b600081815260026020526040902054606090600160a060020a03166110765760405160e560020a62461bcd02815260206004820152602f60248201527f4552433732314d657461646174613a2055524920717565727920666f72206e6f60448201527f6e6578697374656e7420746f6b656e00000000000000000000000000000000006064820152608401610722565b600061108d60408051602081019091526000815290565b905060008151116110ad57604051806020016040528060008152506110d8565b806110b7846117aa565b6040516020016110c8929190611f9b565b6040516020818303038152906040525b9392505050565b600654600160a060020a0316331461110c5760405160e560020a62461bcd0281526004016107229061214b565b600160a060020a03811661118b5760405160e560020a62461bcd02815260206004820152602660248201527f4f776e61626c653a206e6577206f776e657220697320746865207a65726f206160448201527f64647265737300000000000000000000000000000000000000000000000000006064820152608401610722565b610c1681611643565b6000818152600460205260409020805473ffffffffffffffffffffffffffffffffffffffff1916600160a060020a03841690811790915581906111d682610dd8565b600160a060020a03167f8c5be1e5ebec7d5bd14f71427d1e84f3dd0314c0f7b2291e5b200ac8c7c3b92560405160405180910390a45050565b600081815260026020526040812054600160a060020a031661129c5760405160e560020a62461bcd02815260206004820152602c60248201527f4552433732313a206f70657261746f7220717565727920666f72206e6f6e657860448201527f697374656e7420746f6b656e00000000000000000000000000000000000000006064820152608401610722565b60006112a783610dd8565b905080600160a060020a031684600160a060020a031614806112e2575083600160a060020a03166112d784610699565b600160a060020a0316145b806113125750600160a060020a0380821660009081526005602090815260408083209388168352929052205460ff165b949350505050565b82600160a060020a031661132d82610dd8565b600160a060020a0316146113ac5760405160e560020a62461bcd02815260206004820152602960248201527f4552433732313a207472616e73666572206f6620746f6b656e2074686174206960448201527f73206e6f74206f776e00000000000000000000000000000000000000000000006064820152608401610722565b600160a060020a03821661142a5760405160e560020a62461bcd028152602060048201526024808201527f4552433732313a207472616e7366657220746f20746865207a65726f2061646460448201527f72657373000000000000000000000000000000000000000000000000000000006064820152608401610722565b611435600082611194565b600160a060020a038316600090815260036020526040812080546001929061145e908490612209565b9091555050600160a060020a038216600090815260036020526040812080546001929061148c9084906121dd565b9091555050600081815260026020526040808220805473ffffffffffffffffffffffffffffffffffffffff1916600160a060020a0386811691821790925591518493918716917fddf252ad1be2c89b69c2b068fc378daa952ba7f163c4a11628f55a4df523b3ef91a4505050565b60006115076103e861191d565b9050600061151b662386f26fc1000061191d565b6040805160a08101825285815260075460208083019190915291810183905260016060820181905260ff86166080830152600980549182018155600052815180519495509193849360049092027f6e1540171b6c0c960b71a7020d9f60077f6af931a8bbf590da0223dacf75c7af0192611599928492910190611c4b565b50602082015160018201556040820151600282015560608201516003909101805460809093015160ff9081166101000261ffff199094169216919091179190911790556007546115ea903390611964565b600754604080519182526020820184905233917fe6c61928f551ceab96529f7f8e907a65bad987be27d94f9f8b77238bd4335b06910160405180910390a2600780549060006116388361228a565b919050555050505050565b60068054600160a060020a0383811673ffffffffffffffffffffffffffffffffffffffff19831681179093556040519116919082907f8be0079c531659141344cd1fd0a4f28419497f9722a3daafe3b4186f6b6457e090600090a35050565b81600160a060020a031683600160a060020a031614156117075760405160e560020a62461bcd02815260206004820152601960248201527f4552433732313a20617070726f766520746f2063616c6c6572000000000000006044820152606401610722565b600160a060020a03838116600081815260056020908152604080832094871680845294825291829020805460ff191686151590811790915591519182527f17307eab39ab6107e8899845ad3d59bd9653f200f220920489ca2b5937696c31910160405180910390a3505050565b61177f84848461131a565b61178b8484848461197e565b610fe05760405160e560020a62461bcd028152600401610722906120ee565b6060816117ea57505060408051808201909152600181527f3000000000000000000000000000000000000000000000000000000000000000602082015290565b8160005b811561181457806117fe8161228a565b915061180d9050600a836121f5565b91506117ee565b60008167ffffffffffffffff8111156118405760e060020a634e487b7102600052604160045260246000fd5b6040519080825280601f01601f19166020018201604052801561186a576020820181803683370190505b5090505b84156113125761187f600183612209565b915061188c600a866122a5565b6118979060306121dd565b7f0100000000000000000000000000000000000000000000000000000000000000028183815181106118dc5760e060020a634e487b7102600052603260045260246000fd5b60200101907effffffffffffffffffffffffffffffffffffffffffffffffffffffffffffff1916908160001a905350611916600a866121f5565b945061186e565b6040805142602080830191909152336c01000000000000000000000000028284015282516034818403018152605490920190925280519101206000908061131284826122a5565b610db9828260405180602001604052806000815250611ac0565b6000600160a060020a0384163b15611ab5576040517f150b7a02000000000000000000000000000000000000000000000000000000008152600160a060020a0385169063150b7a02906119db903390899088908890600401611fca565b602060405180830381600087803b1580156119f557600080fd5b505af1925050508015611a25575060408051601f3d908101601f19168201909252611a2291810190611ef5565b60015b611a82573d808015611a53576040519150601f19603f3d011682016040523d82523d6000602084013e611a58565b606091505b508051611a7a5760405160e560020a62461bcd028152600401610722906120ee565b805181602001fd5b600160e060020a0319167f150b7a0200000000000000000000000000000000000000000000000000000000149050611312565b506001949350505050565b611aca8383611af6565b611ad7600084848461197e565b61087a5760405160e560020a62461bcd028152600401610722906120ee565b600160a060020a038216611b4f5760405160e560020a62461bcd02815260206004820181905260248201527f4552433732313a206d696e7420746f20746865207a65726f20616464726573736044820152606401610722565b600081815260026020526040902054600160a060020a031615611bb75760405160e560020a62461bcd02815260206004820152601c60248201527f4552433732313a20746f6b656e20616c7265616479206d696e746564000000006044820152606401610722565b600160a060020a0382166000908152600360205260408120805460019290611be09084906121dd565b9091555050600081815260026020526040808220805473ffffffffffffffffffffffffffffffffffffffff1916600160a060020a03861690811790915590518392907fddf252ad1be2c89b69c2b068fc378daa952ba7f163c4a11628f55a4df523b3ef908290a45050565b828054611c579061224c565b90600052602060002090601f016020900481019282611c795760008555611cbf565b82601f10611c9257805160ff1916838001178555611cbf565b82800160010185558215611cbf579182015b82811115611cbf578251825591602001919060010190611ca4565b50611ccb929150611ccf565b5090565b5b80821115611ccb5760008155600101611cd0565b600067ffffffffffffffff80841115611cff57611cff6122eb565b604051601f8501601f19908116603f01168101908282118183101715611d2757611d276122eb565b81604052809350858152868686011115611d4057600080fd5b858560208301376000602087830101525050509392505050565b8035600160a060020a0381168114611d7157600080fd5b919050565b600060208284031215611d87578081fd5b6110d882611d5a565b60008060408385031215611da2578081fd5b611dab83611d5a565b9150611db960208401611d5a565b90509250929050565b600080600060608486031215611dd6578081fd5b611ddf84611d5a565b9250611ded60208501611d5a565b9150604084013590509250925092565b60008060008060808587031215611e12578081fd5b611e1b85611d5a565b9350611e2960208601611d5a565b925060408501359150606085013567ffffffffffffffff811115611e4b578182fd5b8501601f81018713611e5b578182fd5b611e6a87823560208401611ce4565b91505092959194509250565b60008060408385031215611e88578182fd5b611e9183611d5a565b915060208301358015158114611ea5578182fd5b809150509250929050565b60008060408385031215611ec2578182fd5b611ecb83611d5a565b946020939093013593505050565b600060208284031215611eea578081fd5b81356110d881612304565b600060208284031215611f06578081fd5b81516110d881612304565b600060208284031215611f22578081fd5b813567ffffffffffffffff811115611f38578182fd5b8201601f81018413611f48578182fd5b61131284823560208401611ce4565b600060208284031215611f68578081fd5b5035919050565b60008151808452611f87816020860160208601612220565b601f01601f19169290920160200192915050565b60008351611fad818460208801612220565b835190830190611fc1818360208801612220565b01949350505050565b6000600160a060020a03808716835280861660208401525083604083015260806060830152611ffc6080830184611f6f565b9695505050505050565b60208082528251828201819052600091906040908185019080840286018301878501865b8381101561209357603f19898403018552815160a0815181865261205082870182611f6f565b838b0151878c0152898401518a88015260608085015160ff908116918901919091526080948501511693909601929092525050938601939086019060010161202a565b509098975050505050505050565b6020815260006110d86020830184611f6f565b60a0815260006120c760a0830188611f6f565b602083019690965250604081019390935260ff918216606084015216608090910152919050565b60208082526032908201527f4552433732313a207472616e7366657220746f206e6f6e20455243373231526560408201527f63656976657220696d706c656d656e7465720000000000000000000000000000606082015260800190565b6020808252818101527f4f776e61626c653a2063616c6c6572206973206e6f7420746865206f776e6572604082015260600190565b60208082526031908201527f4552433732313a207472616e736665722063616c6c6572206973206e6f74206f60408201527f776e6572206e6f7220617070726f766564000000000000000000000000000000606082015260800190565b600082198211156121f0576121f06122b9565b500190565b600082612204576122046122d2565b500490565b60008282101561221b5761221b6122b9565b500390565b60005b8381101561223b578181015183820152602001612223565b83811115610fe05750506000910152565b60028104600182168061226057607f821691505b602082108114156122845760e060020a634e487b7102600052602260045260246000fd5b50919050565b600060001982141561229e5761229e6122b9565b5060010190565b6000826122b4576122b46122d2565b500690565b60e060020a634e487b7102600052601160045260246000fd5b60e060020a634e487b7102600052601260045260246000fd5b60e060020a634e487b7102600052604160045260246000fd5b600160e060020a031981168114610c1657600080fdfea26469706673582212206fa277619b48f2187fb9582dc9d9780e6aa19e832b329b5017f794701b35b66464736f6c63430008040033",
  "immutableReferences": {},
  "source": "// SPDX-License-Identifier: MIT\r\n\r\npragma solidity ^0.8.4;\r\n\r\nimport \"../node_modules/@openzeppelin/contracts/token/ERC721/ERC721.sol\";\r\nimport \"../node_modules/@openzeppelin/contracts/access/Ownable.sol\";\r\n\r\ncontract ArtToken is ERC721, Ownable {\r\n\r\n    constructor (string memory _name, string memory _symbol)\r\n        ERC721 (_name, _symbol){}\r\n\r\n    uint256 COUNTER;\r\n\r\n    uint256 fee = 5 ether;\r\n\r\n    struct Art {\r\n        string name;\r\n        uint256 id;\r\n        uint256 dna;\r\n        uint8 level;\r\n        uint8 rarity;\r\n    }\r\n\r\n    Art[] public art_works;\r\n\r\n    event NewArtWork (address indexed owner, uint256 id, uint256 dna);\r\n\r\n    function _createRandomNum(uint256 _mod) internal view returns (uint256) {\r\n        bytes32 has_randomNum = keccak256(abi.encodePacked(block.timestamp, msg.sender));\r\n        uint256 randomNum = uint256(has_randomNum);\r\n        return randomNum % _mod;\r\n    }\r\n    \r\n    function _createArtWork(string memory _name) internal {\r\n        uint8 randRarity = uint8(_createRandomNum(1000));\r\n        uint256 randDna = _createRandomNum(10**16);\r\n        Art memory newArtWork = Art(_name, COUNTER, randDna, 1, randRarity);\r\n        art_works.push(newArtWork);\r\n        _safeMint(msg.sender, COUNTER);\r\n        emit NewArtWork(msg.sender, COUNTER, randDna);\r\n        COUNTER++;\r\n    }\r\n\r\n    function updateFee(uint256 _fee) external onlyOwner() {\r\n        fee = _fee;        \r\n    }\r\n\r\n    function infoSmartContract () public view returns (address, uint256){\r\n        address SC_address = address(this);\r\n        uint256 SC_money = address(this).balance / 10**18;\r\n        return (SC_address, SC_money);\r\n    }\r\n    \r\n    function getArtWorks() public view returns (Art [] memory){\r\n        return art_works;        \r\n    }\r\n    \r\n    function getOwnerArtWork(address _owner) public view returns (Art [] memory){\r\n        Art [] memory result = new Art[](balanceOf(_owner)) ;\r\n        uint256 counter_owner = 0;\r\n        for (uint256 i = 0; i < art_works.length; i++) {\r\n            if (ownerOf(i) == _owner){\r\n                result[counter_owner] = art_works[i];\r\n                counter_owner++;                \r\n            }\r\n        }\r\n        return art_works;        \r\n    }\r\n\r\n    function createRandomArtWork(string memory _name) public payable {\r\n        require(msg.value >= fee);\r\n        _createArtWork(_name);\r\n    }\r\n    \r\n    function withdraw() external payable onlyOwner{\r\n        address payable _owner = payable(owner());\r\n        _owner.transfer(address(this).balance);\r\n    }\r\n}",
  "sourcePath": "C:\\Users\\Agus\\repos\\custom-erc721\\contracts\\art.sol",
  "compiler": {
    "name": "solc",
    "version": "0.8.4+commit.c7e474f2.Emscripten.clang"
  },
  "schemaVersion": "3.4.16",
  "updatedAt": "2024-02-15T15:47:38.946Z",
  "devdoc": {
    "kind": "dev",
    "methods": {
      "approve(address,uint256)": {
        "details": "See {IERC721-approve}."
      },
      "balanceOf(address)": {
        "details": "See {IERC721-balanceOf}."
      },
      "getApproved(uint256)": {
        "details": "See {IERC721-getApproved}."
      },
      "isApprovedForAll(address,address)": {
        "details": "See {IERC721-isApprovedForAll}."
      },
      "name()": {
        "details": "See {IERC721Metadata-name}."
      },
      "owner()": {
        "details": "Returns the address of the current owner."
      },
      "ownerOf(uint256)": {
        "details": "See {IERC721-ownerOf}."
      },
      "renounceOwnership()": {
        "details": "Leaves the contract without owner. It will not be possible to call `onlyOwner` functions anymore. Can only be called by the current owner. NOTE: Renouncing ownership will leave the contract without an owner, thereby removing any functionality that is only available to the owner."
      },
      "safeTransferFrom(address,address,uint256)": {
        "details": "See {IERC721-safeTransferFrom}."
      },
      "safeTransferFrom(address,address,uint256,bytes)": {
        "details": "See {IERC721-safeTransferFrom}."
      },
      "setApprovalForAll(address,bool)": {
        "details": "See {IERC721-setApprovalForAll}."
      },
      "supportsInterface(bytes4)": {
        "details": "See {IERC165-supportsInterface}."
      },
      "symbol()": {
        "details": "See {IERC721Metadata-symbol}."
      },
      "tokenURI(uint256)": {
        "details": "See {IERC721Metadata-tokenURI}."
      },
      "transferFrom(address,address,uint256)": {
        "details": "See {IERC721-transferFrom}."
      },
      "transferOwnership(address)": {
        "details": "Transfers ownership of the contract to a new account (`newOwner`). Can only be called by the current owner."
      }
    },
    "version": 1
  },
  "userdoc": {
    "kind": "user",
    "methods": {},
    "version": 1
  }
}